{
  "_format": "hh-sol-artifact-1",
  "contractName": "GreenCoin",
  "sourceName": "contracts/GreenCoin.sol",
  "abi": [
    {
      "inputs": [
        {
          "internalType": "uint256",
          "name": "_coinId",
          "type": "uint256"
        }
      ],
      "stateMutability": "nonpayable",
      "type": "constructor"
    },
    {
      "inputs": [
        {
          "internalType": "bytes32",
          "name": "_hash",
          "type": "bytes32"
        }
      ],
      "name": "addValidation",
      "outputs": [],
      "stateMutability": "nonpayable",
      "type": "function"
    },
    {
      "inputs": [],
      "name": "coinId",
      "outputs": [
        {
          "internalType": "uint256",
          "name": "",
          "type": "uint256"
        }
      ],
      "stateMutability": "view",
      "type": "function"
    },
    {
      "inputs": [],
      "name": "validation_score",
      "outputs": [
        {
          "internalType": "uint256",
          "name": "",
          "type": "uint256"
        }
      ],
      "stateMutability": "view",
      "type": "function"
    },
    {
      "inputs": [
        {
          "internalType": "uint256",
          "name": "",
          "type": "uint256"
        }
      ],
      "name": "validations",
      "outputs": [
        {
          "internalType": "address",
          "name": "validator",
          "type": "address"
        },
        {
          "internalType": "bytes32",
          "name": "data_hash",
          "type": "bytes32"
        }
      ],
      "stateMutability": "view",
      "type": "function"
    }
  ],
  "bytecode": "0x6080604052600060025534801561001557600080fd5b506040516104c33803806104c38339818101604052810190610037919061007f565b80600081905550506100ac565b600080fd5b6000819050919050565b61005c81610049565b811461006757600080fd5b50565b60008151905061007981610053565b92915050565b60006020828403121561009557610094610044565b5b60006100a38482850161006a565b91505092915050565b610408806100bb6000396000f3fe608060405234801561001057600080fd5b506004361061004c5760003560e01c806314795eea14610051578063b38b22611461006f578063d037a7a31461008b578063fc6d8a11146100bc575b600080fd5b6100596100da565b604051610066919061021a565b60405180910390f35b61008960048036038101906100849190610270565b6100e0565b005b6100a560048036038101906100a091906102c9565b6101a7565b6040516100b3929190610346565b60405180910390f35b6100c46101fb565b6040516100d1919061021a565b60405180910390f35b60025481565b600060405180604001604052803373ffffffffffffffffffffffffffffffffffffffff168152602001838152509050600181908060018154018082558091505060019003906000526020600020906002020160009091909190915060008201518160000160006101000a81548173ffffffffffffffffffffffffffffffffffffffff021916908373ffffffffffffffffffffffffffffffffffffffff160217905550602082015181600101555050600160025461019d919061039e565b6002819055505050565b600181815481106101b757600080fd5b90600052602060002090600202016000915090508060000160009054906101000a900473ffffffffffffffffffffffffffffffffffffffff16908060010154905082565b60005481565b6000819050919050565b61021481610201565b82525050565b600060208201905061022f600083018461020b565b92915050565b600080fd5b6000819050919050565b61024d8161023a565b811461025857600080fd5b50565b60008135905061026a81610244565b92915050565b60006020828403121561028657610285610235565b5b60006102948482850161025b565b91505092915050565b6102a681610201565b81146102b157600080fd5b50565b6000813590506102c38161029d565b92915050565b6000602082840312156102df576102de610235565b5b60006102ed848285016102b4565b91505092915050565b600073ffffffffffffffffffffffffffffffffffffffff82169050919050565b6000610321826102f6565b9050919050565b61033181610316565b82525050565b6103408161023a565b82525050565b600060408201905061035b6000830185610328565b6103686020830184610337565b9392505050565b7f4e487b7100000000000000000000000000000000000000000000000000000000600052601160045260246000fd5b60006103a982610201565b91506103b483610201565b92508282019050808211156103cc576103cb61036f565b5b9291505056fea264697066735822122072e71a509b409f851d9e2bd76f4402a60df005e1f7fdb8cd005874436d8d993664736f6c63430008180033",
  "linkReferences": {},
  "deployedLinkReferences": {}
}